:020000040800F2
:10000000C005002049010008ED160008E5130008AE
:10001000C1150008D5010008611D0008000000009E
:100020000000000000000000000000005D17000854
:10003000D701000800000000EF160008AD17000807
:100040006301000863010008630100086301000800
:1000500063010008630100086301000863010008F0
:1000600063010008630100086301000863010008E0
:1000700063010008630100086301000863010008D0
:1000800063010008630100086301000863010008C0
:1000900063010008630100086301000863010008B0
:1000A00063010008630100086301000863010008A0
:1000B0006301000863010008630100086301000890
:1000C0006301000863010008630100086301000880
:1000D00063010008211D0008411D0008630100089C
:1000E0006301000863010008630100086301000860
:1000F0006301000863010008630100086301000850
:10010000630100086301000863010008630100083F
:10011000630100086301000863010008630100082F
:10012000630100086301000863010008630100081F
:10013000DFF810D000F02CF800480047A11D00089F
:10014000AFF30080C00500200648804706480047FE
:10015000FEE7FEE7FEE7FEE7FEE7FEE7FEE7FEE777
:10016000FEE7FEE70118000831010008D2B201E005
:1001700000F8012B491EFBD270470022F6E710B5AC
:1001800013460A4604461946FFF7F0FF204610BD05
:10019000064C074D06E0E06840F0010394E80700D4
:1001A00098471034AC42F6D3FFF7C6FFF81D00089D
:1001B000181E000810B5064C2079012807D101F05F
:1001C00067FA01F0CDFA00F007F80020207110BDA9
:1001D00043000020FEE77047164810B5C07830385D
:1001E000052811D2DFE800F003070B1E220064206F
:1001F00000F012F908E00F4813211D3002E00D480D
:100200001321303001F088FA4FF4967000F004F9B1
:10021000084813210A3001F07FFABDE8104064203D
:1002200000F0FAB8034813214330EBE701481321EB
:100230005630E7E74300002070B501221D491E48F3
:1002400001F010F84FF6FF74234605221B491A48A7
:1002500001F06AF84FF47A75284600F0DDF8174986
:1002600023460E22491D144801F05EF8284600F08E
:10027000D3F812492346092213310F4801F054F8EC
:10028000284600F0C9F80D4923460E221C310A48C1
:1002900001F04AF8284600F0BFF808492346172223
:1002A0002A31054801F040F8284600F0B5F8002052
:1002B00070BD000048000020400100200000002028
:1002C000704700000548064A417811700549827858
:1002D000CA70C0788870012008717047C000002083
:1002E00041000020430000202DE9F05F90F821102C
:1002F0000024022903D004218163012485E00168E0
:100300000A6822F00E020A6001680A6822F00102FF
:100310000A603F4E3E4FB215DFF8F4C0DFF8F090B0
:10032000DFF8ECA0DFF8E8B0DFF8E4E00168783F40
:1003300013011502ACF1640CA9F15009AAF13C0AB1
:10034000ABF1280BAEF1140E4FF48018B14227D94F
:10035000B9420ED0614512D049451DD0514518D043
:10036000594518D0714501D1424615E0294EB14298
:1003700001D1012210E0274E1436B14201D11022E2
:100380000AE0244E2836B14206D0224A3C3291423D
:1003900001D11A4600E02A461E49091F0A602BE0D7
:1003A000B94213D0614517D0494522D051451DD0DF
:1003B00059451DD0714501D142461AE0B14202D1E2
:1003C0004FF0807215E0134EB14201D1012210E0CE
:1003D000104E1436B14201D110220AE00D4E2836DB
:1003E000B14206D00B4A3C32914201D11A4600E09C
:1003F0002A46074980394A60012180F821100021EE
:1004000080F82010416B01B188472046BDE8F09F7D
:10041000800002400804024070B5044600F010F964
:100420000546601C02D004480078044400F008F936
:10043000401BA042FAD370BDB00000202DE9F84F58
:10044000DFF8C891002409F1040A0AF1040B2346DD
:100450000F270BF1040ED1E00125A54006EA0502A5
:10046000AA4276D1DFF8A8C14E68A6EB0C08664513
:100470002BD00DDC032E34D005DC36B3012E19D081
:10048000022E2FD11BE0112E16D0122E2AD119E0E8
:10049000B8F5881F19D006DCB8F5803F15D0B8F53F
:1004A000801F1FD111E0B8F5001F0ED0B8F5041F52
:1004B00018D10AE0CB6815E0CB681B1D12E0CB68B1
:1004C00008330FE0CB680C330CE08B682BB1012BA9
:1004D0004FF0080303D0456104E0042302E0056106
:1004E00000E00023FF2A01D8064601E000F10406DF
:1004F0004FEA840501D9A5F12005D6F8008007FA56
:1005000005FC28EA0C0803FA05F548EA0508C6F8D0
:1005100000804D68ED0070D53E4DAE6946F0010695
:10052000AE61AD6924F0030605F0010500953A4D72
:1005300006EB050CDCF80850A607360F07FA06F89C
:1005400025EA0805DFF8D480404503D14FF00008C4
:1005500025E052E0DFF8C880404502D14FF00108A5
:100560001DE0DFF8C080404502D14FF0020816E0E0
:10057000DFF8B480404502D14FF003080FE0DFF808
:10058000AC80404502D14FF0040808E0DFF8A080BD
:10059000404502D14FF0050801E04FF0060808FA87
:1005A00006F848EA0508CCF808804D68D9F80060DC
:1005B000ED034D4601D5164300E096432E604D688D
:1005C000DAF80060AD03554601D5164300E09643C6
:1005D0002E604D68DBF80060ED025D4601D51643E4
:1005E00000E096432E604D68DEF80060AD0275466F
:1005F00001D5164300E096432E60641C0A68164637
:10060000E2407FF429AFBDE8F88F0000000401400C
:1006100000001110001002400000014000080140DD
:10062000000C01400010014000140140001801407E
:10063000001C01400AB1016170470904FBE700009A
:100640000148806870470000B000002002488168BF
:100650000278114481607047B0000020074810B54F
:10066000016841F010010160032000F073F80020E0
:1006700000F006F800F024F8002010BD0020024031
:1006800070B50D4D04464FF47A712878B1FBF0F047
:100690000A490968B1FBF0F000F0EAFA48B9102CF9
:1006A00007D200222146501E00F034F800206C6072
:1006B00070BD012070BD0000B0000020BC00002013
:1006C0000B4808B5816941F001018161816901F040
:1006D00001010091C16941F08051C161C06900F020
:1006E000805000900348416821F0E061416008BDFE
:1006F0000010024000000140002809DB00F01F024A
:10070000012191404009800000F1E020C0F8001173
:1007100070470000F0B40E4B1B680C46C3F3022375
:10072000C3F10705042D00D90425191D072901D29D
:10073000002300E0DB1E012606FA05F1491E2140D8
:1007400099409E40761E16403143F0BC01F009BB33
:100750000CED00E0064900F0070208684FF6FF03C1
:10076000184040EA0220034A104308607047000026
:100770000CED00E00000FA052DE9F0470F460500FA
:1007800061D0434E306800F00700B84209D23068AB
:1007900020F0070038433060306800F00700B842AE
:1007A00051D128683B4C810712D5400703D56068BA
:1007B00040F4E06060602878000703D5606840F48A
:1007C000605060606068A96820F0F00008436060D5
:1007D0002878C00728D06868012810D0216802282E
:1007E00010D0890700292EDA616821F00301014346
:1007F0006160FFF725FF804641F288390DE02168EE
:100800008903EFE78901EDE7FFF71AFFA0EB080185
:10081000494502D90320BDE8F0876068696800F0A7
:100820000C00B0EB810FEFD1306800F00700B84248
:100830000BD9306820F0070038433060306800F092
:100840000700B84201D00120E5E72878400705D528
:100850006068E96820F4E060084360602878000779
:1008600006D56068296920F4605040EAC1006060E4
:1008700000F038F86168084AC1F30311515CC840C0
:100880000649086006480068FFF7FAFE0020C2E744
:100890000020024000100240E01D0008BC000020C3
:1008A000B40000200448054900684968044AC1F3BF
:1008B0000221515CC8407047BC000020001002407B
:1008C000F01D00080448054900684968044AC1F35E
:1008D000C221515CC8407047BC000020001002409B
:1008E000F01D000812A185B00FC98DE80F0014A0FB
:1008F000144A006804905168134801F00C03042B5B
:1009000010D0082B0ED1C1F38343C9031DF8030097
:100910000AD5516804AAC1F34041515C0A4A5043C8
:10092000B0FBF1F005B0704708494843FAE7000012
:1009300002030405060708090A0B0C0D0E0F101020
:10094000010200000010024000127A0000093D0080
:100950002DE9F84F040070D02078C04DC00749D071
:100960006868C0F38100012807D06868C0F381007F
:10097000022809D16868C00306D52868800339D5E4
:1009800060680028E7D035E06068B0F5803F0BD0A4
:1009900010B1B0F5A02F11D0286820F48030286065
:1009A000286820F4802002E0286840F48030286025
:1009B000606890B1FFF744FE06460AE0286840F4FC
:1009C00080202860F0E700BFFFF73AFE801B642814
:1009D00073D828688003F7D50CE0FFF731FE064690
:1009E00005E000BFFFF72CFE801B6428F0D82868C4
:1009F0008003F7D420789A4E80074FF001094FF01A
:100A0000000839D5686810F00C0F07D06868C0F38B
:100A10008100022809D16868C00306D428688007CD
:100A200014D52069012808D110E02069B0B1C6F8BA
:100A30000090FFF705FE074605E00AE1FFF700FE1C
:100A4000C01B0228C4D828688007F7D528686169C8
:100A500020F0F80040EAC10028600DE0C6F80080F0
:100A6000FFF7EEFD074604E0FFF7EAFDC01B022892
:100A700023D828688007F7D4207800072CD5794838
:100A8000A169D9B1C0F80090FFF7DAFD074604E08C
:100A9000FFF7D6FDC01B02280FD8686A8007F7D57C
:100AA00071484FF4FA510068B0FBF1F0009000BFBC
:100AB0000098411E0091FAD20EE080E0C0F800805C
:100AC000FFF7BEFD074604E0FFF7BAFDC01B022892
:100AD00075D8686A8007F7D42078400760D5E86940
:100AE0000027C00008D4E86940F08050E861E86958
:100AF000012700F0805000905C480168C90513D4BC
:100B00000168834641F480710160FFF799FD8246D8
:100B100006E000BFFFF794FDA0EB0A0064284ED862
:100B2000DBF80000C005F5D5E06801280AD008B15F
:100B3000052813D0286A20F001002862286A20F0D6
:100B4000040002E0286A40F001002862E06841F2F7
:100B5000883B98B1FFF774FD82460BE0286A40F0AD
:100B600004002862EEE700BFFFF76AFDA0EB0A0170
:100B700059455AD8286A8007F6D50CE0FFF760FD82
:100B8000824605E0FFF75CFDA0EB0A0159454CD811
:100B9000286A8007F6D41FB1E86920F08050E86128
:100BA000E06988B36968C1F38101022944D0022851
:100BB000C6F8608004D0FFF743FD044638E034E017
:100BC000FFF73EFD074604E0FFF73AFDC01B022891
:100BD0002BD828688001F7D4206AB0F5803F05D172
:100BE0006868A16820F4003008436860D4E908010F
:100BF0000843696821F4741108436860C6F860907E
:100C0000FFF71EFD044606E025E000BFFFF718FDD4
:100C1000001B022809D828688001F7D51BE000BF17
:100C2000FFF70EFD001B022802D90320BDE8F88F54
:100C300028688001F4D40EE00128F7D06868226AA1
:100C400000F48031914204D1616A00F4701088424E
:100C500001D00120EAE70020E8E700000010024090
:100C60000000424280044242BC000020007000406C
:100C700010B5401EB0F1807F01D3012010BD4FF0B0
:100C8000E02460610F21601701F06BF80020A06183
:100C900007202061002010BD10B590F83C20012AEB
:100CA00022D0012280F83C20CA688C6822F440726D
:100CB00022434C6822F4806222430C6822F40062D2
:100CC00022430C6922F4805222434C6922F40052E0
:100CD0002243C969002322F480420A4301684A641E
:100CE00080F83C30002010BD022010BD70B590F897
:100CF0003C20012A19D0012400F83C4F0222427006
:100D000050F83C3C5A689D6822F070060A684968B1
:100D1000324325F0800529435A6050F83C2C9160FD
:100D2000447000210170084670BD022070BD10B5EE
:100D3000040003D094F83D0010B107E0012010BD7D
:100D4000002084F83C00204600F00CF8022084F8D3
:100D50003D00211D206800F077FD012084F83D0052
:100D6000002010BD08B500680649884208D1064831
:100D7000816941F400618161806900F40060009044
:100D800008BD0000002C01400010024070B5044670
:100D900090F83C00012817D0012584F83C5002202F
:100DA00084F83D002068826822F0770222F47F42B6
:100DB00082600868502830D00DDC20284DD005DC3A
:100DC00098B310283BD148E0022070BD302844D0B1
:100DD000402834D139E0602828D0702806D0B0F5FA
:100DE000805F2CD0B0F5005F29D10AE0CB68D1E953
:100DF0000121206800F07BFD2068816841F07701C7
:100E000009E0CB68D1E90121206800F070FD20687D
:100E1000816841F48041816011E0CA6849682068B6
:100E200000F03AFE5021206807E016E0CA684968E1
:100E3000206800F042FE6021206800F062FD84F826
:100E40003D50002084F83C0070BDCA6849682068A5
:100E500000F022FE40212068EFE72268014610469C
:100E6000EBE7000000B585B00021009101910291EF
:100E700003910068104988421BD11048816941F0F4
:100E8000400181618069694600F0400004904FF4A0
:100E9000206000900220019003900948FFF7CEFAED
:100EA0000848416821F0C00141F0E06141F0C00113
:100EB000416005B000BD0000002C01400010024060
:100EC000001801400000014070B5044690F83C0055
:100ED0000D4601280DD0012684F83C60022084F8DC
:100EE0003D0042B1042A18D0082A2AD00C2A4DD13C
:100EF00039E0022070BD206800F00CFD2068816997
:100F000041F0080181612068816921F0040181615B
:100F1000206881692A69114311E0206800F02AFDE8
:100F20002068816941F4006181612068816921F450
:100F300080618161206881692A6941EA02218161B9
:100F400024E0206800F04CFD2068C16941F00801F0
:100F5000C1612068C16921F00401C1612068C169D3
:100F60002A69114311E0206800F06EFD2068C16914
:100F700041F40061C1612068C16921F48061C161EF
:100F80002068C1692A6941EA0221C16184F83D6093
:100F9000002084F83C0070BD10B5040003D094F824
:100FA0003D0010B107E0012010BD002084F83C0096
:100FB000204600F00CF8022084F83D00211D206836
:100FC00000F042FC012084F83D00002010BD704775
:100FD00010B504460068012200F07CFC0B49206833
:100FE000884202D00A49884203D1416C41F4004151
:100FF00041642068816801F00701062903D0016877
:1010000041F001010160002010BD0000002C0140F2
:10101000003401407047000070B502680446106853
:10102000D168536910F00F0F50D003F0010501F49F
:10103000907635435DD0C20705D0CA0503D5E26B73
:1010400042F00102E263420705D5DA0703D0E26B02
:1010500042F00202E263820705D5DA0703D0E26BB1
:1010600042F00402E263020705D5DA0703D0E26B1F
:1010700042F00802E263E26B002A33D0800604D516
:10108000880602D5204600F040FD20684069E16BEB
:10109000C0F38010090700D428B3204600F027FDD4
:1010A0002068416949061AD5416921F04001416132
:1010B000606BA0B11B494163606BFFF715F9002815
:1010C00010D0606B416BBDE870400847830610D5B7
:1010D0008B060ED52046BDE8704000F016BD2046B8
:1010E000FFF798FF70BD2046FFF794FF0020E063F4
:1010F00070BD030606D50B0604D52046BDE870403A
:1011000000F0AABD4006F3D54806F1D5D1682046C7
:1011100021F04001D160202184F8391000F061F9FC
:1011200070BD0000DF1A000870B5040004D094F808
:101130003900002510B106E0012070BD84F8385058
:10114000204600F023F8242084F839002068C16884
:1011500021F40051C160204600F022FD20680169A1
:1011600021F4904101612068416921F02A01416127
:101170002068C16841F40051C160E563202084F813
:10118000390084F83A00002070BD000070B586B0C8
:10119000002400940194029403942E4E03682E4977
:1011A000022003222D4DB34226D18B6943F48043A4
:1011B0008B618B6903F4804304938B6943F00403D0
:1011C0008B618969039201F0040104910102CDE968
:1011D000001069462846FFF731F92815CDE90004CB
:1011E000694628460294FFF729F9002201212520AB
:1011F000FFF790FA252028E0194EB34227D1CB699A
:1012000043F40033CB61CB6903F4003304938B695F
:1012100043F004038B618969039201F00401049196
:101220000421CDE9001069462846FFF707F9082098
:10123000CDE90004694628460294FFF7FFF8002232
:1012400011462620FFF766FA2620FFF755FA06B06A
:1012500070BD00000038014000100240000801404D
:101260000044004090F83A30202B22D1F9B1F2B17D
:1012700090F83830012B1CD081628285C285002114
:10128000C163222280F83A2080F838100168CA68C9
:1012900042F48072CA6001684A6942F001024A6100
:1012A0000068C16841F02001C16000207047012042
:1012B000704702207047000070B51849884219D164
:1012C000174B012418465A79017816483A2A00D15A
:1012D00069B101290ED101784E290BD15978002529
:1012E0004254491CC9B25970072904D00AE04E2162
:1012F00001701C7070BD80794428FBD11D705C703A
:10130000FEF7E0FF58780728F4D91D705C70BDE83F
:10131000704040210348FEF730BF0000400100202C
:1013200043000020C00000202DE9F843044690F857
:1013300039001F4616460D46202850D1A5B19EB152
:1013400094F8380001284AD0012084F838004FF082
:101350000008C4F83C80212084F83900FFF770F9B8
:10136000A6848146E68426E00120BDE8F883E08C6F
:10137000401EE084A0684B46B0F5805F4FF000024D
:101380004FF080012046009703D000F096FCE8B9AA
:101390000DE000F092FCC8B928882168C0F308006D
:1013A0004860206908B16D1C05E0AD1C03E02168B0
:1013B00015F8010B4860E08C0028D8D14B4600227C
:1013C00040212046009700F078FC08B10320CCE7CC
:1013D000202084F8390084F838800020C5E70220F6
:1013E000C3E77047FEE7000070B586B000241E48D2
:1013F0000094019402940394816941F00401816195
:10140000816901F004010491816941F04001816129
:10141000816901F040010491816941F00801816115
:101420008069124E00F008000490002249F28051B9
:101430003046FFF7FFF849F280400125CDE900056D
:101440000220CDE9024069463046FEF7F7FF280248
:10145000CDE900050320CDE9024069463046FEF79C
:10146000EDFF06B070BD0000001002400018014002
:1014700010B596B000240F94109411941294139404
:101480001C2168461494FEF778FE202107A8FEF779
:1014900074FE2C482A49C0E9001440F2E731C0E943
:1014A0000241046144618461FFF741FC08B1FEF729
:1014B00007FF4FF480500F900FA92248FFF766FCFA
:1014C00008B1FEF7FDFE1F48FFF766FD08B1FEF705
:1014D000F7FE139413A91B481494FFF707FC08B1F7
:1014E000FEF7EEFE60200090C820CDE901040394D1
:1014F000049405940022694612480694FFF7E4FC20
:1015000008B1FEF7DDFE042269460E48FFF7DCFC59
:1015100008B1FEF7D5FE0794089409944FF40050E3
:101520000A94CDE90B4007A906480E94FFF7B4FBD7
:1015300008B1FEF7C5FE0348FFF794FC16B010BDD6
:10154000002C0140000100200C4810B50A49016040
:101550004FF4E1314160002181600C22C160C0E99B
:1015600004128161C161FFF7DFFD002803D0BDE8EF
:101570001040FEF7A5BE10BD00380140400100201C
:101580000E4810B50C4901604FF4165141604FF4FC
:101590008051816000214FF48062C0E903120C2267
:1015A000C0E90521C161FFF7BFFD002803D0BDE8F8
:1015B0001040FEF785BE10BD0044004080010020B1
:1015C000FEE7000010B5064C012280212046FFF7FF
:1015D00031F8002221152046BDE81040FFF72AB857
:1015E0000018014010B5064C002280212046FFF76C
:1015F00021F820460122BDE810409102FFF71AB8F9
:101600000018014010B5064C002280212046FFF74B
:1016100011F8002221152046BDE81040FFF70AB856
:101620000018014010B5074C012211032046FFF7B6
:1016300001F82046BDE8104000224FF40041FEF7BB
:10164000F9BF00000018014010B5074C00224FF40C
:1016500080512046FEF7EEFF20460122BDE81040F3
:10166000D103FEF7E7BF00000018014010B5074C9A
:1016700000224FF480512046FEF7DCFF2046BDE8F3
:10168000104000224FF40041FEF7D4BF0018014083
:10169000154810B500783038062824D2DFE800F06D
:1016A00003080B11171DBDE810400120FEF7B4BE62
:1016B000FFF798FF07E0FFF785FFBDE81040FFF751
:1016C000B1BFFFF79FFFBDE81040FFF7BDBFFFF7B9
:1016D000CDFFBDE81040FFF785BFFFF793FFBDE8E2
:1016E0001040FFF7C3BF10BD410000207047704796
:1016F00010B500224FF480710448FEF79BFFBDE84F
:101700001040012202490348FFF7ACBD0018014018
:10171000AC000020800100202DE9F04101220C4F97
:101720000C460546160231463846FEF783FF4FF455
:101730007A73224629460748FFF7F6FD064900203E
:101740000246087031463846BDE8F041FEF772BFE8
:101750000018014080010020420000207047000076
:10176000104882781048303A062A016818D2DFE81B
:1017700002F00306090C0F120120FEF74DBE4FF4D4
:1017800096720AE04FF4C87207E04FF4167204E054
:101790004FF4487201E040F2E6324A630068826327
:1017A000704700004300002000010020FEF74EBFFC
:1017B00030B58FB028216846FEF7DFFC14210AA857
:1017C000FEF7DBFC01210804CDE90010002402949F
:1017D00002250491CDE907504FF4E01009906846C6
:1017E000FFF7B6F80F20CDE90A056802CDE90C40F5
:1017F00002210AA80E94FEF7BFFF0FB030BD000013
:101800000D48016841F00101016041680B4A114037
:10181000416001680A4A11400160016821F4802199
:101820000160416821F4FE0141604FF41F018160B5
:101830000449C00308607047001002400000FFF830
:10184000FFFFF6FE08ED00E0F0B502681C4B1D4DF1
:101850001D4E1E4F1E4C4FF0804C984209D0A042A6
:1018600007D0604505D0A84203D0B04201D0B842AD
:1018700004D122F0700E4A6842EA0E02984209D062
:10188000A04207D0604505D0A84203D0B04201D0A5
:10189000B84203D122F44075CA682A434D6922F048
:1018A00080022A4302608A68C2620A6882629842A1
:1018B00001D0A04201D10969016301214161F0BD5C
:1018C000002C01400004004000080040000C0040D3
:1018D0000034014010B501F01F030121046A994052
:1018E0008C430462016A9A401143016210BD10B535
:1018F000846842EA032224F47F440A43224382603C
:1019000010BD826822F070020A4342F00701816034
:1019100070470000F0B5026A22F001020262036A19
:1019200042688469124E24F073050C682C4323F03E
:1019300002058B682B430D4DA84201D0B04205D162
:1019400023F00807CB683B4323F00403A84201D0EF
:10195000B04205D14D6922F4407215438A692A4389
:1019600042608461496841630362F0BD002C01401C
:1019700000340140F0B5026A22F010020262026AED
:10198000436884690D6824F4E64444EA05248D68BC
:1019900022F0200242EA05120F4D104EA84201D05B
:1019A000B04206D1CF6822F0800242EA071222F04C
:1019B0004002A84201D0B04207D14D6923F44063F0
:1019C00043EA85038D6943EA85034360846149687E
:1019D00081630262F0BD0000002C01400034014030
:1019E000F0B5026A22F480720262026A4368C46936
:1019F00022F4007224F073050C68124E2C438D689B
:101A000042EA05220E4DA84201D0B04206D1CF686D
:101A100022F4006242EA072222F48062A84201D046
:101A2000B04207D14D6923F4405343EA05138D6951
:101A300043EA05134360C4614968C1630262F0BDB3
:101A4000002C01400034014030B5026A22F480527B
:101A50000262046A4268C3690D6823F4E64343EAFC
:101A600005238D6824F4005444EA0534084DA84247
:101A700002D0084DA84204D14D6922F4804242EAC6
:101A800085124260C36149680164046230BD000090
:101A9000002C01400034014010B5036A046A24F0B0
:101AA00001040462846924F0F00444EA021423F07F
:101AB0000A020A438461026210BD10B5036A23F072
:101AC000100303628369046A23F4704343EA023219
:101AD00024F0A00343EA01118261016210BD10B538
:101AE000406A0021C185C184FFF794FA10BD0168E6
:101AF000CA6822F49072CA6001684A6922F0010241
:101B00004A61202180F83A10704710B590F83A10D9
:101B1000222901D0022010BD8168B1F5805F11D06B
:101B20000169002901681FD0496801F07F03816ABB
:101B30004A1C82620B70C18D491E0904090CC185C3
:101B400018D02BE00269816A002A0268526805D029
:101B5000D2B20A80816A491C8162ECE7C2F30802B2
:101B60000A80816A891CF7E74A68816A4B1C836294
:101B70000A70E0E70168CA6822F02002CA600168C2
:101B8000CA6822F48072CA6001684A6922F00102C0
:101B90004A61202180F83A10FFF78EFB002010BD2B
:101BA0002DE9F041044600680169E26821F44051E2
:101BB000114301612169A0680843616908432168F4
:101BC000CA6841F20C639A430243CA6020684169C3
:101BD000A26921F44071114341611E4920686425C6
:101BE0003226884202D1FEF76DFE01E0FEF75AFE72
:101BF00000EBC00101EB001160686FF01807800076
:101C0000B1FBF0F2B2FBF5F2B1FBF0F37A4303EB78
:101C10008202B1FBF0F306EB0212B2FBF5F2B3FB6A
:101C2000F5F302F0F00202EB0312B1FBF0F3B1FBAB
:101C3000F0F0B0FBF5F0784303EB800006EB00100A
:101C4000B0FBF5F0216800F00F0010448860BDE89B
:101C5000F08100000038014090F83910212901D0AE
:101C6000022070478168B1F5805F016A0BD04A1C81
:101C70000262026809785160C18C491E0904090C8E
:101C8000C1840ED017E009880268C1F308015160D1
:101C900001690029016A02D0491C0162ECE7891C34
:101CA000FBE70168CA6822F08002CA600068C16868
:101CB00041F04001C160002070472DE9F041984695
:101CC00017460E460446069D1DE0681C1BD02DB12C
:101CD000FEF7B6FCA0EB0800A84214D92068C16842
:101CE00021F4D071C1602068416921F00101416196
:101CF000202084F8390084F83A00002084F8380065
:101D00000320BDE8F0812068006836EA000004D0B6
:101D10000020B842D9D00020F3E70120F9E7000005
:101D200010B50548FFF778F9BDE8104001220349D6
:101D30000148FFF797BA000040010020480000204A
:101D400010B50548FFF768F9BDE8104001220349C6
:101D50000148FFF787BA000080010020AC00002096
:101D6000FEE70907090E002804DB00F1E02080F8F7
:101D70000014704700F00F0000F1E02080F8141DFF
:101D8000704702E008C8121F08C1002AFAD1704744
:101D90007047002001E001C1121F002AFBD17047EB
:101DA000FEF75CFCFFF704FDFFF71EFBFFF7CCFB23
:101DB000FFF75EFBFFF7E4FBFEF73EFAFFF798FC48
:101DC00000210648FFF704F904210448FFF700F951
:101DD0000A20FEF721FBFEF7EDF9F9E700010020EC
:101DE00000000000000000000102030406070809CB
:101DF0000000000001020304181E0008000000207B
:101E0000C0000000821D0008D81E0008C00000208D
:101E100000050000921D000841540D0A0041542B9A
:101E200043574D4F44453D320D0A0041542B525308
:101E3000540D0A0041542B4349504D55583D310D26
:101E40000A002041542B4349505345525645523DB8
:101E5000312C383038390D0A000000000100000034
:101E600000000000000110000800050A000000004A
:101E7000ED40000001001F120110000800050A03D8
:101E8000840000EA20000001003DA40110000800C9
:101E9000050AFC7C0000EA20000001006B930110A1
:101EA000000800050A0A8C0000EA20000001008AF0
:101EB0004B0110000800050AF5740000EA2000003C
:101EC0000100DC7C000000000100000010000000A8
:081ED000000000000024F400F2
:0400000508000131BD
:00000001FF
